:020000040800F2
:10000000D0C701202902000887180008B11600088F
:10001000851800081F040008A91F00080000000040
:100020000000000000000000000000008B18000825
:10003000A9040008000000008918000889190008B8
:10004000430200084302000843020008430200087C
:10005000430200084302000843020008430200086C
:10006000430200084302000843020008430200085C
:10007000430200082104000843020008430200086C
:10008000430200084302000843020008430200083C
:10009000430200084302000843020008430200082C
:1000A000430200084302000843020008430200081C
:1000B000430200084302000843020008430200080C
:1000C00043020008430200084302000843020008FC
:1000D00043020008430200084302000843020008EC
:1000E00043020008430200084302000843020008DC
:1000F00043020008430200084302000843020008CC
:1001000043020008430200084302000843020008BB
:100110008D1C000843020008430200084302000847
:10012000430200084302000843020008430200089B
:10013000430200084302000843020008430200088B
:10014000430200084302000843020008430200087B
:10015000430200084302000843020008430200086B
:10016000430200084302000843020008430200085B
:100170004302000843020008430200080000000098
:10018000430200084302000800F002F800F03CF8C7
:100190000AA090E8000C82448344AAF10107DA45E2
:1001A00001D100F031F8AFF2090EBAE80F0013F0F8
:1001B000010F18BFFB1A43F001031847F81E000097
:1001C000181F0000103A24BF78C878C1FAD8520727
:1001D00024BF30C830C144BF04680C6070470000C1
:1001E0000023002400250026103A28BF78C1FBD840
:1001F000520728BF30C148BF0B6070471FB501F0E0
:1002000043FF1FBD10B510BD00F0CFF81146FFF73A
:10021000F5FF01F01FFF00F0EDF803B4FFF7F2FF68
:1002200003BC00F0F5F80000094880470948004782
:10023000FEE7FEE7FEE7FEE7FEE7FEE7FEE7FEE796
:10024000FEE7FEE704480549054A064B70470000F3
:10025000211A000889010008D0C10120D0C701205F
:10026000D0C30120D0C3012053EA020C00F0698002
:100270002DE9F04B4FF00006002B1FBFB3FA83F5BA
:1002800003FA05F424FA05F65E4012BF1643B2FAEB
:1002900082F502FA05F4C5F120051EBF22FA05FC1D
:1002A00044EA0C04203556EA044C4FEA144418BFC3
:1002B000641C4FF000084FF00009904271EB030CF2
:1002C00039D3002919BFB1FA81F701FA07F6B0FA5C
:1002D00080F700FA07F6C7F120071EBF20FA07FCD7
:1002E00046EA0C062037B6FBF4FCA7EB0507103FE7
:1002F00007F01F0BCBF120060CFA0BFB2CFA06F6CD
:1003000044BFB3460026202FA4BF5E464FF0000B2B
:100310005BEA060C08BF4FF0010B19EB0B09ABFBB6
:10032000027C48EB0608C01B06FB02CC0BFB03CC8F
:1003300071EB0C01C1E70B46024641464846BDE859
:10034000F08B13B54FF000004FF00001AFF30080C9
:10035000BDE81C4070474FF0000200B513469446BC
:100360009646203922BFA0E80C50A0E80C50B1F10D
:100370002001BFF4F7AF090728BFA0E80C5048BF21
:100380000CC05DF804EB890028BF40F8042B08BFBF
:10039000704748BF20F8022B11F0804F18BF00F8BB
:1003A000012B7047704770477047754600F02CF876
:1003B000AE4605006946534620F00700854618B052
:1003C00020B5FFF73FFFBDE820404FF000064FF09B
:1003D00000074FF000084FF0000B21F00701AC467A
:1003E000ACE8C009ACE8C009ACE8C009ACE8C00999
:1003F0008D46704710B50446AFF300802046BDE837
:100400001040FFF70ABF00000048704770C101208C
:1004100001491820ABBEFEE7260002007047FEE748
:10042000014800F09FB8000010C1012001681823A6
:10043000CAB2103AB2FBF3F2054B6FF30901032A7B
:100440009B5CC36500D9091D8165084670470000A3
:100450009220000810B5014600208B698A6A4FF08F
:10046000C07453B1B3F5005F15D072B1012A0CD03E
:10047000022A0AD0032A09D104E01AB1012A06D0BF
:10048000022A03D1C96AC90100D5012010BDC96A79
:10049000A142FAD010BD002AF7D0012AF2D0022AD8
:1004A000F3D0032AF3D010BD704772B6FEE72DE9F2
:1004B000F0410446876D00F087FA064694F835004F
:1004C0000025022806D08020606584F83450012081
:1004D000BDE8F0812068016821F016010160206804
:1004E000416921F080014161206C08B9A06C20B104
:1004F0002068016821F0080101602068016821F08E
:10050000010101600CE000F05FFA801B052807D9AB
:1005100020206065032084F8350084F83450D7E744
:1005200020680068C007EED194F85C103F20884036
:10053000B860012084F8350084F834500020C7E703
:1005400090F83510022903D08021416501207047C1
:10055000052180F835100068016821F00101016073
:10056000002070472DE9F84304464FF00009CDF80C
:10057000009063484FF41651A56D0068B0FBF1F789
:100580002E6894F85C10082000FA01F131420FD077
:1005900021680A6852070BD50A6822F004020A6033
:1005A00094F85C108840A860606D40F001006065C0
:1005B00094F85C104FF0010808FA01F0304208D0BE
:1005C00021684969090604D5A860606D40F0020001
:1005D000606594F85C1004208840304208D021689F
:1005E0000968890704D5A860606D40F00400606563
:1005F00094F85C1010208840304218D021680968B7
:10060000090714D5A86020680168490304D500686B
:10061000000308D5A16C07E00168C90503D401688F
:1006200021F008010160216C09B12046884794F847
:100630005C1020208840304231D021680968C9060A
:100640002DD5A86094F8350005282068016806D0EB
:10065000490347D5006800031DD4616C1CE021F0FC
:10066000160101602068416921F080014161206C20
:1006700008B9A06C20B12068016821F00801016070
:1006800094F85C103F208840A86084F8358084F896
:100690003490216D1FE0E16B09B120468847606D01
:1006A00000282BD0606DC00714D0052084F83500D9
:1006B0002068016821F0010101600098401C009051
:1006C000B84203D820680068C007F6D184F83580A6
:1006D00084F83490E16C002910D001B02046BDE8C8
:1006E000F04308470168C905D5D4016821F010011D
:1006F000016084F8358084F83490CCE7BDE8F88355
:1007000014C001202DE9F041044600F05DF90646D1
:100710005CB1022084F83500002584F8345020684C
:10072000016821F0010101600DE00120BDE8F081C8
:1007300000F04AF9801B052805D9202060650320B8
:1007400084F83500F2E720680068C007F0D122681D
:10075000116820480140D4E901031843D4E9033665
:100760003343184363691843A3691843E369184383
:10077000236A18430843616A042903D1D4E90B139F
:1007800019430843106020684069666A20F0070139
:1007900030460E43012704280CD1A06A0643E06AC4
:1007A00040B12046FFF756FE20B14020606584F836
:1007B0003570BAE7206846612046FFF737FE94F8A7
:1007C0005C203F2191408160656584F83570002090
:1007D000ACE700003F8010F02DE9F84FDFF8BCA136
:1007E0000022012503264FF00F090AF1040BAAF19C
:1007F000040E00BF0B6805FA02F42340A34270D137
:100800000F7907F00307012F01D0022F16D1876857
:100810004FEA420806FA08FC27EA0C07D1F80CC098
:100820000CFA08FC4CEA070CC0F808C04768A7435C
:100830000C79C4F3001494403C4344600C79E443C5
:10084000A4070AD0C4684FEA420C06FA0CF7BC436E
:100850008F6807FA0CF72743C7600C7904F003048C
:10086000022C12D1D40800EB840CDCF8204057078E
:10087000FF0E09FA07F824EA0804D1F8108008FAF4
:1008800007F848EA0408CCF8208004684FEA420CD4
:1008900006FA0CF7BC430F7907F0030707FA0CF7C9
:1008A000274307604C6814F4403F70D03C4C2768E5
:1008B00047F480472760246822F0030704F480444B
:1008C0000094384C07EB040CDCF8084897074FEA13
:1008D000177809FA08F7BC43334FB84202D1002712
:1008E00024E054E0314FB84201D101271EE0304FDF
:1008F000B84201D1022719E02E4FB84201D1032797
:1009000014E02D4FB84201D104270FE02B4FB8421D
:1009100001D105270AE02A4FB84201D1062705E098
:10092000284FB84201D1072700E0082707FA08F747
:100930002743CCF80878DAF800405746D1F804C0CD
:100940009C435FEACC2C00D51C433C60DBF80040A4
:100950005F46D1F804C09C435FEA8C2C00D51C4351
:100960003C60DEF800407746D1F804C09C435FEA63
:100970008C3C00D51C433C60084F083F3C68D1F8D4
:1009800004C09C435FEACC3C00D51C433C60521C35
:10099000102AFFF42FAFBDE8F88F0000083C01409B
:1009A0004438024000300140000002400004024090
:1009B00000080240000C02400010024000140240F7
:1009C00000180240001C0240014880687047000087
:1009D00008C0012002488168027811448160704794
:1009E00008C001200B4810B5016841F40071016096
:1009F000016841F480610160016841F48071016027
:100A0000032000F06FF80F2000F006F800F024F843
:100A1000002010BD003C024070B50D4D04464FF45F
:100A20007A712878B1FBF0F00A490968B1FBF0F05F
:100A300000F00CFB48B9102C07D200222146501EB2
:100A400000F030F800206C6070BD012070BD000027
:100A500008C0012014C001200A4808B5016841F40B
:100A600080410160006800F4804000900548001F4C
:100A7000016841F080510160006800F080500090F2
:100A800008BD000044380240002809DB00F01F02C6
:100A9000012191404009800000F1E020C0F80011E0
:100AA00070470000F0B40E4B1B680C46C3F30223E2
:100AB000C3F10705042D00D90425191D072901D20A
:100AC000002300E0DB1E012606FA05F1491E214045
:100AD00099409E40761E16403143F0BC01F0A9BA01
:100AE0000CED00E0064900F0070208684FF6FF032E
:100AF000184040EA0220034A104308607047000093
:100B00000CED00E00000FA052DE9F0470E46050067
:100B100065D0DFF81481D8F80000F7B200F00700C4
:100B2000B04207D288F80070D8F8000000F0070043
:100B3000B04254D128683D4C810712D5400703D5F7
:100B4000206840F4E05020602878000703D5206832
:100B500040F4604020602068A96820F0F00008435D
:100B600020602878C0072DD03049686808390128EE
:100B700012D0022813D0032811D009688907002950
:100B80002DDA216821F0030101432160FFF71CFFEA
:100B9000814641F2883A0EE009688903EFE7096867
:100BA0008901ECE7FFF710FFA0EB0901514502D9DD
:100BB0000320BDE8F0872068696800F00C00B0EB06
:100BC000810FEFD1D8F80010404601F00701B14283
:100BD00007D90770006800F00700B04201D001207B
:100BE000E7E72878400705D52068E96820F4E05059
:100BF000084320602878000706D52068296920F47A
:100C0000604040EAC100206000F038F82168084ADE
:100C1000C1F30311515CC8400649086006480068EA
:100C2000FFF7FAFE0020C4E7003C0240083802400B
:100C30009A20000814C001200CC001200448054976
:100C400000680968044AC1F38221515CC8407047BA
:100C500014C0012008380240AA20000804480549B1
:100C600000680968044AC1F34231515CC8407047CA
:100C700014C0012008380240AA200008154810B509
:100C8000006810F00C02144813D01449042A0FD045
:100C9000082A0ED10F4C241F2268236802F03F025D
:100CA0005B0207D52068C0F38810A0FB010106E0B5
:100CB000084610BD2168C1F38811A1FB0001002383
:100CC000FFF7D2FA2168C1F30141491C4900B0FB8A
:100CD000F1F010BD083802400024F40040787D0196
:100CE0002DE9F84F04006ED02078DFF84C93C00750
:100CF000A9F104054AD009F104000168C1F381019A
:100D0000012908D00068C0F3810002280AD1D9F86F
:100D10000000400206D52868800337D560680028A7
:100D2000E1D033E06068B0F5803F10D0B0F5A02F7F
:100D3000286810D020F480302860286820F48020B3
:100D400028606068A8B1FFF73FFE06460DE02868FE
:100D500040F48030F4E740F480202860F7E700BFDB
:100D6000FFF732FE801B642873D828688003F7D50C
:100D70000CE0FFF729FE064605E000BFFFF724FE62
:100D8000801B6428F0D828688003F7D42078DFF827
:100D9000AC8280074FF0000A3ED5A748001D0168CD
:100DA00011F00C0F08D00068C0F3810002280BD1AD
:100DB000D9F80000400207D42868800716D5E068FB
:100DC000012800D112E033E1E068B8B10120C8F891
:100DD0000000FFF7F9FD064605E000BFFFF7F4FD50
:100DE000801B0228C0D828688007F7D528682169A9
:100DF00020F0F80040EAC10028600DE0C8F800A02B
:100E0000FFF7E2FD064604E0FFF7DEFD801B022847
:100E10001FD828688007F7D42078000722D5864F8E
:100E200087486169703771B101210160FFF7CCFD1E
:100E3000064604E0FFF7C8FD801B022809D8386881
:100E40008007F7D50EE0C0F800A0FFF7BDFD06460D
:100E500005E082E0FFF7B8FD801B02287DD83868E6
:100E60008007F7D42078400768D5DFF8CCB1002799
:100E70000BF13C0BDBF80000C0000BD4DBF80010DA
:100E800041F08051CBF80010DBF80000012700F0A2
:100E9000805000906B4E3068C00510D4306840F42C
:100EA00080703060FFF790FD009005E0FFF78CFD4B
:100EB0000099401A022850D83068C005F6D55E4E19
:100EC000A0686C3601280FD00528306810D020F0BB
:100ED00001003060306820F004003060A068B8B1D4
:100EE000FFF772FD00900FE0306840F00100F4E77A
:100EF00040F004003060F7E7FFF766FD0099411A03
:100F000041F28830814266D830688007F4D50EE01F
:100F1000FFF75AFD009007E0FFF756FD0099411AD0
:100F200041F28830814256D830688007F4D42FB11E
:100F3000DBF8001021F08051CBF80010A069C8B395
:100F40003D49091D0968C1F3810102294AD00228DF
:100F5000504607D0C8F8600000E03CE0FFF734FDE1
:100F600004463BE04746C8F86000FFF72DFD064603
:100F700005E000BFFFF728FD801B02282BD828685A
:100F80008001F7D4D4E907010843A16A2E4A490831
:100F900002EB0141626A41EA8211084394F82C1085
:100FA00040EA0161C9F8001001203866FFF70CFD26
:100FB000044606E03EE000BFFFF706FD001B0228E6
:100FC00009D828688001F7D534E000BFFFF7FCFCA2
:100FD000001B022802D90320BDE8F88F2868800191
:100FE000F4D427E00128F7D0D9F80000E26900F432
:100FF000800191421CD1226A00F03F01914217D139
:1010000047F6C071626A0140B1EB821F10D1A26A3B
:101010004FF0FF3300F4403103EB5202B1EB024FCB
:1010200006D194F82C1000F07060B0EB016F01D085
:101030000120D1E70020CFE70438024000004742FA
:10104000800E4742007000400000FFFF10B5401EB8
:10105000B0F1807F01D3012010BD4FF0E02460612A
:101060000F21601700F0E5FF0020A061072020613C
:10107000002010BD70B590F83C20012A32D0012428
:1010800080F83C40022280F83D2003685A689D6841
:1010900022F070060A6832435A60134B02689A4283
:1010A00014D0B2F1804F11D0104B9A420ED0104B99
:1010B0009A420BD00F4B9A4208D00F4B9A4205D060
:1010C0000E4B9A4202D00E4B9A4204D1496825F049
:1010D00080031943916080F83D40002180F83C1066
:1010E000084670BD022070BD0000014000040040B1
:1010F00000080040000C0040000401400040014096
:101100000018004030B587B0044614216846FFF748
:1011100022F9204A216800241F480225914220D14B
:10112000016841F001010160016801F001010591D0
:10113000016841F0020101600068694600F00200A8
:101140000590C0200090CDE901541448CDE9034535
:10115000FFF742FB03200090CDE901546946104897
:1011600011E0104A914212D1016841F0080101607A
:101170000068694600F0080005904FF44050009068
:10118000CDE901540848CDE90345FFF725FB07B039
:1011900030BD000000040040303802400000024032
:1011A0000004024000080040000C024070B50446F4
:1011B00090F83C0000260D4601280FD0012084F84D
:1011C0003C006AB1042A1DD0082A2FD00C2A3FD037
:1011D0000126002084F83C00304670BD022070BD1E
:1011E000206800F091FC2068816941F0080181616C
:1011F0002068816921F004018161206881692A6980
:10120000114311E0206800F0AFFC2068816941F4CF
:10121000006181612068816921F4806181612068B9
:1012200081692A6941EA02218161D2E7206800F0E0
:10123000D1FC2068C16941F00801C1612068C16921
:1012400021F00401C1612068C1692A69114311E0DC
:10125000206800F0F3FC2068C16941F40061C161BD
:101260002068C16921F48061C1612068C1692A696F
:1012700041EA0221C161ACE710B5040003D094F843
:101280003D0010B107E0012010BD002084F83C00B3
:10129000204600F01FF8022084F83D00211D206840
:1012A00000F0C6FB012084F8460084F83E0084F874
:1012B0003F0084F8400084F8410084F8420084F83C
:1012C000430084F8440084F8450084F83D00002081
:1012D00010BD000008B50C4A01680C48914207D1C6
:1012E000016841F002010160006800F0020009E0BD
:1012F000074A914207D1016841F00401016000688A
:1013000000F00400009008BD000400404038024096
:1013100000080040024A904201D100F009BE704727
:10132000C8C0012070470000F8B50168044608688D
:10133000CA684B6910F00F0F4FF0000559D003F049
:10134000010602F49077374365D0C10705D0D10577
:1013500003D5616C41F001016164410705D5D907EE
:1013600003D0616C41F002016164810705D5D907A2
:1013700003D0616C41F004016164010707D502F0FC
:101380002001314303D0616C41F008016164616C5C
:1013900000293AD0800604D5900602D5204600F0F8
:1013A000AAFC20684069616CC0F38010090700D472
:1013B00060B3204600F078FC20684069400621D5E3
:1013C0002068143050E8001F21F0400140E800126E
:1013D000002AF5D1E06BA8B16E490165E06BFFF71B
:1013E000AFF8002811D0E06B016D01B0BDE8F0400E
:1013F000084783060FD593060DD52046BDE8F84073
:1014000000F079BC2046FFF78DFFF8BD2046FFF7BE
:1014100089FF6564F8BD266B2023012E7DD1C606A9
:101420007BD5D60679D508684868009048694FF0A2
:101430000206400641D5E16B086840680004000CD4
:10144000E8D0A28D8242E5D9E085C869B0F5807FF9
:101450002DD020680C3050E8001F21F4807140E846
:101460000012002AF5D12068143050E8001F21F046
:10147000010140E80012002AF5D12068143050E83C
:10148000001F21F0400140E80012002AF5D184F845
:101490004230256320680C3050E8001F21F0100115
:1014A00040E80012002AF5D1E06BFFF700F8666310
:1014B000A08DE18D401A81B22AE0A08DE18D401A05
:1014C00081B2E08D0028A5D00029A3D022680C327B
:1014D00052E8000F20F4907042E80007002FF5D189
:1014E0002068143050E8002F22F0010240E8002765
:1014F000002FF5D184F84230256320680C3050E885
:10150000002F22F0100240E80023002BF5D1666383
:101510002046FFF7FFFEF8BDFFE705062BD51506B1
:1015200029D594F841002128F5D1A068B0F5805F55
:1015300001D12069B0B1206A411C21622168007884
:101540004860E08C401E0004000CE084E3D1206879
:10155000C16821F08001C1602068C16841F040018C
:10156000C160D8E7206A0088C0F308004860206A9C
:10157000801C2062E5E74006CDD55006CBD5CA6871
:10158000204622F04002CA6084F8413000F08FF813
:10159000C1E70000991C000870B5040004D094F85D
:1015A0004100002510B106E0012070BD84F84050D4
:1015B000204600F023F8242084F841002068C16808
:1015C00021F40051C160204600F0F6FB206801695B
:1015D00021F4904101612068416921F02A014161B3
:1015E0002068C16841F40051C1606564202084F81E
:1015F000410084F842006563002070BD70B586B07C
:10160000064614216846FEF7A6FE23493068884244
:101610003FD122480025016841F4002101600068A3
:1016200000F4002005901D481038016841F00101C8
:1016300001600068022100F00100059003208DE8A0
:10164000230003900820049069461548FFF7C4F86A
:10165000154C144820604005C4E901054014C4E954
:10166000035080106561C4E906504FF44030C4E96E
:1016700008052046FFF746F808B1FEF716FFF463A9
:10168000002211463420A663FFF70CFA3420FFF73E
:10169000FBF906B070BD0000004C0040403802402D
:1016A000000002404060024010C1012070477047B6
:1016B000FEE70000094808B5016841F40011016027
:1016C0000068002200F40010009011460D20FFF782
:1016D000E9F9BDE808400D20FFF7D6B930380240DF
:1016E000114808B5016841F080010160016801F00E
:1016F00080010091016841F001010160016801F081
:1017000001010091016841F002010160016801F0EE
:1017100002010091016841F008010160006800F0D9
:101720000800009008BD00003038024010B58AB0B3
:10173000002407941C2168460894FEF70CFE2248FA
:1017400020490160A721C0E9011444F61F61C0E9E6
:1017500003148461FFF790FD08B1FEF7A6FE07941D
:1017600007A919480894FFF785FC08B1FEF79DFE0C
:101770006020CDE9000402940022694612480494D6
:10178000FFF714FD08B1FEF790FE042269460E48EB
:10179000FFF70CFD08B1FEF788FE082269460A48EB
:1017A000FFF704FD08B1FEF780FE0C2269460648EB
:1017B000FFF7FCFC08B1FEF778FE0348FFF7A2FC38
:1017C0000AB010BD0004004038C0012010B58AB036
:1017D000002407941C2168460894FEF7BCFD1A48B3
:1017E00018490160A721C0E9011444F61F61C0E94E
:1017F00003148461FFF740FD08B1FEF756FE07941D
:1018000007A911480894FFF735FC08B1FEF74DFE13
:101810006020CDE900040294002269460A4804943D
:10182000FFF7C4FC08B1FEF740FE042269460648F3
:10183000FFF7BCFC08B1FEF738FE0348FFF762FC77
:101840000AB010BD0008004080C001200C4810B54F
:101850000A4901604FF4E1314160002181600C22AE
:10186000C160C0E904128161C161FFF795FE0028E3
:1018700003D0BDE81040FEF718BE10BD004C00407C
:10188000C8C00120FEE7FEE77047704730B101286D
:1018900003D003480068816300207047012070472F
:1018A00080C0012000B55A2000F080FB0C490A6876
:1018B00050635A2000F07AFB0A6890635A2000F0C7
:1018C00075FB0A68D0635A2000F070FB0968086451
:1018D0005A2000F06BFB034909684863002000BDF3
:1018E00038C0012080C0012000B5002000F05EFB60
:1018F0000C490A685063002000F058FB0A689063A6
:10190000002000F053FB0A68D063002000F04EFB7B
:1019100009680864002000F049FB0349096848632E
:10192000002000BD38C0012080C0012000B506287D
:1019300023D2DFE800F02203050C131A104A15E049
:101940000F4A084600F032FB1168886313E00C4A26
:10195000084600F02BFB1168C8630CE0084A0846F3
:1019600000F024FB1168086405E0064A084600F010
:101970001DFB11684863002000BD012000BD000070
:1019800038C0012080C00120FFF724B830B593B0E3
:1019900030216846FEF7DFFC14210CA8FEF7DBFCC3
:1019A0001D480025016841F080510160006800F089
:1019B000805011901948016841F48041016000682D
:1019C000022400F480401190012003901020049024
:1019D000009406940820CDE90750A820CDE9090419
:1019E00004200B906846FFF77BF908B172B6FEE75A
:1019F0000CA90F2081E831004FF4A0500F904FF454
:101A00008050109005210CA8FFF77EF8002801D027
:101A100072B6FEE713B030BD40380240007000409F
:101A20000248016841F470010160704788ED00E0F0
:101A3000F0B50268294C2A4D2A4E2B4F2B4B4FF004
:101A4000804CA04209D0604507D0A84205D0B042E2
:101A500003D0B84201D0984204D122F0700E4A68F7
:101A600042EA0E02A0421BD0604519D0A84217D00E
:101A7000B04215D0B84213D0984211D01C4DA842A4
:101A80000ED01C4DA8420BD01B4DA84208D01B4DB8
:101A9000A84205D01A4DA84202D01A4DA84203D13F
:101AA00022F44075CA682A434D6922F080022A4315
:101AB00002608A68C2620A688262A04201D09842CB
:101AC00001D109690163012141610169C90703D09D
:101AD000016921F001010161F0BD00000000014039
:101AE0000004004000080040000C004000040140D9
:101AF00000400140004401400048014000180040FF
:101B0000001C004000200040F0B5036A026A22F089
:101B10000102026242688469124E24F073050C6867
:101B20002C4323F002058B682B430D4DA84201D0B6
:101B3000B04205D123F00807CB683B4323F00403F0
:101B4000A84201D0B04205D14D6922F4407215433C
:101B50008A692A4342608461496841630362F0BD37
:101B60000000014000040140F0B5026A036A23F05E
:101B700010030362436884690D6824F4E64444EA70
:101B800005248D6822F0200242EA05120F4D104E06
:101B9000A84201D0B04206D1CF6822F0800242EACA
:101BA000071222F04002A84201D0B04207D14D698D
:101BB00023F4406343EA85038D6943EA8503436068
:101BC0008461496881630262F0BD00000000014049
:101BD00000040140F0B5026A036A23F480730362D3
:101BE0004368C46922F4007224F073050C68124E35
:101BF0002C438D6842EA05220E4DA84201D0B04226
:101C000006D1CF6822F4006242EA072222F4806201
:101C1000A84201D0B04207D14D6923F4405343EAB2
:101C200005138D6943EA05134360C4614968C163C4
:101C30000262F0BD000001400004014030B5046ABA
:101C4000026A22F4805202624268C3690D6823F47A
:101C5000E64343EA05238D6824F4005444EA05343E
:101C6000084DA84202D0084DA84204D14D6922F483
:101C7000804242EA85124260C3614968016404629D
:101C800030BD000000000140000401400148FFF7A2
:101C90004BBB0000C8C0012010B5806B0021C1857E
:101CA000C184FFF73FFB10BD01680C3151E8002FE4
:101CB00022F4907241E80023002BF5D10168143121
:101CC00051E8002F22F0010241E80023002BF5D15A
:101CD000016B012909D101680C3151E8002F22F074
:101CE000100241E80023002BF5D1202180F842109A
:101CF00000210163704708B590F84210222901D0F5
:101D0000022008BD82684FF480539A4201D10169D4
:101D100021B1816A9A421BD04AB10AE00268816A05
:101D20005268C2F308020A80816A891C08E00269CD
:101D300072B10268526802F07F020A70816A491C1F
:101D40008162C18D491E0904090CC18503D01BE0C5
:101D500002685268F1E70168CA6822F02002CA608E
:101D60000168CA6822F48072CA6001684A6922F078
:101D700001024A61202180F8421000214163026B78
:101D8000012A03D0FFF792FC002008BD016301681F
:101D90000C3151E8002F22F0100241E80023002B03
:101DA000F5D101680A68D20602D50A68496800912F
:101DB000818DFFF7AFFAE7E770B504460068016967
:101DC000E26821F44051114301612169A068E26990
:101DD00008436169114308432168CA6849F20C63EA
:101DE0009A430243CA6020684169A26921F44071A4
:101DF0001143416131492068884202D0304988420C
:101E000002D1FEF72BFF01E0FEF718FFE269002385
:101E1000192164253226B2F5004F626828D0A0FB54
:101E20000101930F9200FEF71FFA0146B0FBF5F097
:101E30006FF01802504301EB800006EB0010B0FB7E
:101E4000F5F000F0F002B1FBF5F002EB0012B1FB8F
:101E5000F5F06FF01803584301EB800006EB00101B
:101E6000B0FBF5F000F00F0021681044886070BDF1
:101E7000A0FB010192185B41FEF7F6F90146B0FBA9
:101E8000F5F00201B1FBF5F06FF01803584301EBD8
:101E9000800006EBC000B0FBF5F000F0F80002EBAC
:101EA0004002B1FBF5F0584301EB800006EBC000A7
:101EB000B0FBF5F000F00700D6E70000001001408D
:101EC0000014014030B50124046302244463838577
:101ED0000468656945F0400565610468E56845F09A
:101EE0001005E560C46B2468256825F001052560B0
:101EF000C46B24682468E407F4D1C56B04682D68BA
:101F0000241DAC60C46B2468E160C16B09680A6180
:101F1000C16B09684B60C16B09680A6842F4802292
:101F20000A60C06B0068016841F00101016030BDCA
:101F300010B50446C06B00680268130303684FF0D5
:101F4000100223F001030360E06B006803680DD406
:101F500043F400230360E06B00684260082915D158
:101F60000E490888401C08800D480DE023F400232A
:101F70000360E06B00684260082907D109490888BE
:101F8000401C08800648083000F02EF8E06B00681E
:101F9000016841F00101016010BD000000C0012096
:101FA00018C0012004C00120FEE70000B42800D9B9
:101FB000B42000EE100A9FED091AB8EE400AC0EEF8
:101FC000010A9FED071A9FED070A00EE810ABCEE99
:101FD000C00A10EE100A80B27047000000003443BF
:101FE000000048430000484210B50178FF290AD19B
:101FF000C1790F2907D1417839B1417841B1417890
:1020000049B1417879B1012010BDFFF76DFC0EE0B8
:10201000FFF748FC0BE0C1780279807842EA0121A1
:10202000FFF784FC03E0C1788078FFF72FFC0020E5
:1020300010BD0907090E002804DB00F1E02080F83C
:102040000014704700F00F0000F1E02080F8141D2C
:1020500070470000FEF7C6FCFFF798FCFFF740FB57
:10206000FFF728FBFFF762FBFFF7B0FBFFF7EEFB84
:10207000034A1023A2F110010248FFF723FFFEE7F5
:1020800028C00120C8C001204FF04070E1EE100AC6
:102090007047000610160006101600000000000031
:1020A0000000010203040607080900000000010205
:1020B00003040000D420000800C001201800000024
:1020C000C4010008EC20000818C00120B807000077
:1020D000E001000800000000000000000100000016
:0C20E00010000000000000000024F400CC
:040000050800018965
:00000001FF
