:020000040800F2
:10000000000700202902000867110008F50F00080A
:10001000651100081F040008851600080000000094
:100020000000000000000000000000006B1100084C
:100030002104000800000000691100086513000891
:10004000430200084302000843020008430200087C
:10005000430200084302000843020008430200086C
:10006000430200084302000843020008430200085C
:10007000430200084302000843020008430200084C
:10008000430200084302000843020008430200083C
:10009000430200084302000843020008430200082C
:1000A000430200084302000843020008430200081C
:1000B000430200084302000843020008430200080C
:1000C00043020008430200084302000843020008FC
:1000D00043020008430200084302000843020008EC
:1000E00043020008430200084302000843020008DC
:1000F00043020008430200084302000843020008CC
:1001000043020008430200084302000843020008BB
:1001100043020008430200084302000843020008AB
:10012000430200084302000843020008430200089B
:10013000430200084302000843020008430200088B
:10014000430200084302000843020008430200087B
:10015000430200084302000843020008430200086B
:10016000430200084302000843020008430200085B
:100170004302000843020008430200080000000098
:10018000430200084302000800F002F800F03CF8C7
:100190000AA090E8000C82448344AAF10107DA45E2
:1001A00001D100F031F8AFF2090EBAE80F0013F0F8
:1001B000010F18BFFB1A43F0010318477815000020
:1001C00098150000103A24BF78C878C1FAD85207B1
:1001D00024BF30C830C144BF04680C6070470000C1
:1001E0000023002400250026103A28BF78C1FBD840
:1001F000520728BF30C148BF0B6070471FB501F0E0
:100200008CFA1FBD10B510BD00F0CFF81146FFF7F6
:10021000F5FF01F067FA00F0EDF803B4FFF7F2FF25
:1002200003BC00F0F5F80000094880470948004782
:10023000FEE7FEE7FEE7FEE7FEE7FEE7FEE7FEE796
:10024000FEE7FEE704480549054A064B70470000F3
:10025000FD130008890100080001002000070020AC
:10026000000300200003002053EA020C00F0698024
:100270002DE9F04B4FF00006002B1FBFB3FA83F5BA
:1002800003FA05F424FA05F65E4012BF1643B2FAEB
:1002900082F502FA05F4C5F120051EBF22FA05FC1D
:1002A00044EA0C04203556EA044C4FEA144418BFC3
:1002B000641C4FF000084FF00009904271EB030CF2
:1002C00039D3002919BFB1FA81F701FA07F6B0FA5C
:1002D00080F700FA07F6C7F120071EBF20FA07FCD7
:1002E00046EA0C062037B6FBF4FCA7EB0507103FE7
:1002F00007F01F0BCBF120060CFA0BFB2CFA06F6CD
:1003000044BFB3460026202FA4BF5E464FF0000B2B
:100310005BEA060C08BF4FF0010B19EB0B09ABFBB6
:10032000027C48EB0608C01B06FB02CC0BFB03CC8F
:1003300071EB0C01C1E70B46024641464846BDE859
:10034000F08B13B54FF000004FF00001AFF30080C9
:10035000BDE81C4070474FF0000200B513469446BC
:100360009646203922BFA0E80C50A0E80C50B1F10D
:100370002001BFF4F7AF090728BFA0E80C5048BF21
:100380000CC05DF804EB890028BF40F8042B08BFBF
:10039000704748BF20F8022B11F0804F18BF00F8BB
:1003A000012B7047704770477047754600F02CF876
:1003B000AE4605006946534620F00700854618B052
:1003C00020B5FFF73FFFBDE820404FF000064FF09B
:1003D00000074FF000084FF0000B21F00701AC467A
:1003E000ACE8C009ACE8C009ACE8C009ACE8C00999
:1003F0008D46704710B50446AFF300802046BDE837
:100400001040FFF70ABF000000487047A00000201E
:1004100001491820ABBEFEE7260002007047FEE748
:10042000704772B6FEE7000070B5044600F006F9AA
:100430000546601C02D004480078044400F0FEF831
:10044000401BA042FAD370BD000000202DE9F84FF8
:10045000DFF8BCA10022012503264FF00F090AF1A5
:10046000040BAAF1040E00BF0B6805FA02F4234046
:10047000A34270D10F7907F00307012F01D0022F9B
:1004800016D187684FEA420806FA08FC27EA0C07EB
:10049000D1F80CC00CFA08FC4CEA070CC0F808C0F4
:1004A0004768A7430C79C4F3001494403C4344606C
:1004B0000C79E443A4070AD0C4684FEA420C06FA58
:1004C0000CF7BC438F6807FA0CF72743C7600C7919
:1004D00004F00304022C12D1D40800EB840CDCF8E5
:1004E00020405707FF0E09FA07F824EA0804D1F85C
:1004F000108008FA07F848EA0408CCF8208004685D
:100500004FEA420C06FA0CF7BC430F7907F00307D9
:1005100007FA0CF7274307604C6814F4403F70D08B
:100520003C4C276847F480472760246822F0030783
:1005300004F480440094384C07EB040CDCF80848C1
:1005400097074FEA177809FA08F7BC43334FB842C8
:1005500002D1002724E054E0314FB84201D10127F5
:100560001EE0304FB84201D1022719E02E4FB842A9
:1005700001D1032714E02D4FB84201D104270FE029
:100580002B4FB84201D105270AE02A4FB84201D1CA
:10059000062705E0284FB84201D1072700E00827C9
:1005A00007FA08F72743CCF80878DAF800405746EE
:1005B000D1F804C09C435FEACC2C00D51C433C60BE
:1005C000DBF800405F46D1F804C09C435FEA8C2C06
:1005D00000D51C433C60DEF800407746D1F804C0EB
:1005E0009C435FEA8C3C00D51C433C60084F083FAD
:1005F0003C68D1F804C09C435FEACC3C00D51C4366
:100600003C60521C102AFFF42FAFBDE8F88F0000A9
:10061000083C0140443802400030014000000240E4
:100620000004024000080240000C0240001002409A
:100630000014024000180240001C0240014880687B
:1006400070470000000000200248816802781144D1
:1006500081607047000000200B4810B5016841F42C
:1006600000710160016841F480610160016841F43A
:1006700080710160032000F061F80F2000F006F89F
:1006800000F024F8002010BD003C024070B50D4D74
:1006900004464FF47A712878B1FBF0F00A490968F2
:1006A000B1FBF0F000F0DEFA48B9102C07D20022BE
:1006B0002146501E00F022F800206C6070BD012021
:1006C00070BD0000000000200C0000200A4808B5A2
:1006D000016841F480410160006800F480400090AE
:1006E0000548001F016841F080510160006800F07A
:1006F0008050009008BD000044380240F0B40E4B1A
:100700001B680C46C3F30223C3F10705042D00D96F
:100710000425191D072901D2002300E0DB1E012654
:1007200006FA05F1491E214099409E40761E16406A
:100730003143F0BC00F0C6BF0CED00E0064900F00C
:10074000070208684FF6FF03184040EA0220034AF8
:1007500010430860704700000CED00E00000FA054F
:100760002DE9F0470E46050065D0DFF81481D8F872
:100770000000F7B200F00700B04207D288F800701E
:10078000D8F8000000F00700B04254D128683D4C72
:10079000810712D5400703D5206840F4E05020605F
:1007A0002878000703D5206840F460402060206866
:1007B000A96820F0F000084320602878C0072DD0F9
:1007C000304968680839012812D0022813D003285C
:1007D00011D00968890700292DDA216821F0030169
:1007E00001432160FFF72AFF814641F2883A0EE07B
:1007F00009688903EFE709688901ECE7FFF71EFF45
:10080000A0EB0901514502D90320BDE8F08720681B
:10081000696800F00C00B0EB810FEFD1D8F8001040
:10082000404601F00701B14207D90770006800F0A7
:100830000700B04201D00120E7E72878400705D53E
:100840002068E96820F4E050084320602878000719
:1008500006D52068296920F4604040EAC100206084
:1008600000F018F82168084AC1F30311515CC84030
:100870000649086006480068FFF708FF0020C4E743
:10088000003C024008380240241700080C000020F9
:1008900004000020154810B5006810F00C02144840
:1008A00013D01449042A0FD0082A0ED10F4C241F4C
:1008B0002268236802F03F025B0207D52068C0F37C
:1008C0008810A0FB010106E0084610BD2168C1F3B5
:1008D0008811A1FB00010023FFF7C6FC2168C1F3CA
:1008E0000141491C4900B0FBF1F010BD083802403D
:1008F0000024F40040787D012DE9F84F04006ED00B
:100900002078DFF84C93C007A9F104054AD009F11B
:1009100004000168C1F38101012908D00068C0F317
:10092000810002280AD1D9F80000400206D52868C3
:10093000800337D560680028E1D033E06068B0F507
:10094000803F10D0B0F5A02F286810D020F4803060
:100950002860286820F4802028606068A8B1FFF72C
:100960006DFE06460DE0286840F48030F4E740F460
:1009700080202860F7E700BFFFF760FE801B642837
:1009800073D828688003F7D50CE0FFF757FE0646BA
:1009900005E000BFFFF752FE801B6428F0D82868EE
:1009A0008003F7D42078DFF8AC8280074FF0000A8C
:1009B0003ED5A748001D016811F00C0F08D0006853
:1009C000C0F3810002280BD1D9F80000400207D4FF
:1009D0002868800716D5E068012800D112E033E1CD
:1009E000E068B8B10120C8F80000FFF727FE06460E
:1009F00005E000BFFFF722FE801B0228C0D8286850
:100A00008007F7D52868216920F0F80040EAC10086
:100A100028600DE0C8F800A0FFF710FE064604E0CD
:100A2000FFF70CFE801B02281FD828688007F7D428
:100A30002078000722D5864F87486169703771B1E9
:100A400001210160FFF7FAFD064604E0FFF7F6FD1D
:100A5000801B022809D838688007F7D50EE0C0F857
:100A600000A0FFF7EBFD064605E082E0FFF7E6FD9C
:100A7000801B02287DD838688007F7D4207840078B
:100A800068D5DFF8CCB100270BF13C0BDBF8000098
:100A9000C0000BD4DBF8001041F08051CBF80010FF
:100AA000DBF80000012700F0805000906B4E3068AA
:100AB000C00510D4306840F480703060FFF7BEFD90
:100AC000009005E0FFF7BAFD0099401A022850D8BF
:100AD0003068C005F6D55E4EA0686C3601280FD090
:100AE0000528306810D020F001003060306820F018
:100AF00004003060A068B8B1FFF7A0FD00900FE0DF
:100B0000306840F00100F4E740F004003060F7E79F
:100B1000FFF794FD0099411A41F28830814266D86E
:100B200030688007F4D50EE0FFF788FD009007E0FD
:100B3000FFF784FD0099411A41F28830814256D86E
:100B400030688007F4D42FB1DBF8001021F0805119
:100B5000CBF80010A069C8B33D49091D0968C1F36D
:100B6000810102294AD00228504607D0C8F8600007
:100B700000E03CE0FFF762FD04463BE04746C8F872
:100B80006000FFF75BFD064605E000BFFFF756FD7E
:100B9000801B02282BD828688001F7D4D4E90701EC
:100BA0000843A16A2E4A490802EB0141626A41EA00
:100BB0008211084394F82C1040EA0161C9F8001032
:100BC00001203866FFF73AFD044606E03EE000BF2C
:100BD000FFF734FD001B022809D828688001F7D5EB
:100BE00034E000BFFFF72AFD001B022802D90320D2
:100BF000BDE8F88F28688001F4D427E00128F7D0F9
:100C0000D9F80000E26900F4800191421CD1226A07
:100C100000F03F01914217D147F6C071626A01406E
:100C2000B1EB821F10D1A26A4FF0FF3300F44031C4
:100C300003EB5202B1EB024F06D194F82C1000F0F6
:100C40007060B0EB016F01D00120D1E70020CFE749
:100C50000438024000004742800E474200700040C6
:100C60000000FFFF10B5401EB0F1807F01D30120CE
:100C700010BD4FF0E02460610F21601700F022FDED
:100C80000020A06107202061002010BD70B590F801
:100C90003C20012A32D0012480F83C40022280F816
:100CA0003D2003685A689D6822F070060A68324346
:100CB0005A60134B02689A4214D0B2F1804F11D09F
:100CC000104B9A420ED0104B9A420BD00F4B9A42C7
:100CD00008D00F4B9A4205D00E4B9A4202D00E4BD1
:100CE0009A4204D1496825F080031943916080F845
:100CF0003D40002180F83C10084670BD022070BDC8
:100D0000000001400004004000080040000C0040CA
:100D100000040140004001400018004030B587B099
:100D2000044614216846FFF716FB204A2168002478
:100D30001F480225914220D1016841F00101016064
:100D4000016801F001010591016841F002010160B3
:100D50000068694600F002000590C0200090CDE9CF
:100D600001541448CDE90345FFF770FB03200090C0
:100D7000CDE901546946104811E0104A914212D160
:100D8000016841F0080101600068694600F0080050
:100D900005904FF440500090CDE901540848CDE94A
:100DA0000345FFF753FB07B030BD000000040040CF
:100DB00030380240000002400004024000080040B9
:100DC000000C024070B5044690F83C0000260D4629
:100DD00001280FD0012084F83C006AB1042A1DD0FC
:100DE000082A2FD00C2A3FD00126002084F83C008E
:100DF000304670BD022070BD206800F081FB206885
:100E0000816941F0080181612068816921F0040154
:100E10008161206881692A69114311E0206800F02E
:100E20009FFB2068816941F40061816120688169CC
:100E300021F480618161206881692A6941EA022187
:100E40008161D2E7206800F0C1FB2068C16941F0F0
:100E50000801C1612068C16921F00401C1612068F5
:100E6000C1692A69114311E0206800F0E3FB2068A2
:100E7000C16941F40061C1612068C16921F48061E8
:100E8000C1612068C1692A6941EA0221C161ACE7F8
:100E900010B5040003D094F83D0010B107E0012024
:100EA00010BD002084F83C00204600F01FF802200E
:100EB00084F83D00211D206800F0A8FA012084F884
:100EC000460084F83E0084F83F0084F8400084F82F
:100ED000410084F8420084F8430084F8440084F818
:100EE000450084F83D00002010BD000008B50C4A04
:100EF00001680C48914207D1016841F0020101608C
:100F0000006800F0020009E0074A914207D1016839
:100F100041F004010160006800F00400009008BD89
:100F200000040040403802400008004010B504466C
:100F3000022249B104290ED0082913D094F84100A7
:100F4000012816D0012010BD94F83E000128F9D1E7
:100F500084F83E200FE094F83F000128F2D184F895
:100F60003F2008E094F840000128EBD184F84020AD
:100F700001E084F841200122206800F0B3FA16490C
:100F80002068164A884201D0904203D1436C43F452
:100F9000004343642068884213D0B0F1804F10D0E2
:100FA0000F4988420DD00F4988420AD00E49884225
:100FB00007D0904205D00D49884202D00C498842A2
:100FC00004D1816801F00701062903D0016841F0CE
:100FD00001010160002010BD00000140000401403B
:100FE0000004004000080040000C004000400140A8
:100FF00000180040FEE70000114808B5016841F004
:1010000080010160016801F080010091016841F0F8
:1010100001010160016801F001010091016841F0E6
:1010200002010160016801F002010091016841F0D4
:1010300008010160006800F00800009008BD000091
:101040003038024010B58AB0002407941C2168464D
:101050000894FFF780F9224820490160A721C0E9E0
:10106000011444F61F61C0E903148461FFF710FF07
:1010700008B1FFF7D6F9079407A919480894FFF7B4
:1010800005FE08B1FFF7CDF96020CDE90004029418
:101090000022694612480494FFF794FE08B1FFF756
:1010A000C0F9042269460E48FFF78CFE08B1FFF72D
:1010B000B8F9082269460A48FFF784FE08B1FFF72D
:1010C000B0F90C2269460648FFF77CFE08B1FFF72D
:1010D000A8F90348FFF722FE0AB010BD0004004043
:1010E0001000002010B58AB0002407941C21684627
:1010F0000894FFF730F91A4818490160A721C0E9A0
:10110000011444F61F61C0E903148461FFF7C0FEB7
:1011100008B1FFF786F9079407A911480894FFF76B
:10112000B5FD08B1FFF77DF96020CDE90004029418
:10113000002269460A480494FFF744FE08B1FFF70D
:1011400070F9042269460648FFF73CFE08B1FFF734
:1011500068F90348FFF7E2FD0AB010BD000800403F
:1011600058000020FEE7FEE77047704710B550B109
:10117000012807D00548006881634FF4FA70FFF733
:1011800053F9002010BD012010BD000058000020C0
:1011900010B55A2000F078FA0E490A6850635A20B8
:1011A00000F072FA0A6890635A2000F06DFA0A683B
:1011B000D0635A2000F068FA096808645A2000F0E9
:1011C00063FA0549096848634FF4FA70FFF72CF990
:1011D000002010BD100000205800002010B5002095
:1011E00000F052FA0E490A685063002000F04CFAF1
:1011F0000A689063002000F047FA0A68D063002074
:1012000000F042FA09680864002000F03DFA054940
:10121000096848634FF4FA70FFF706F9002010BD23
:10122000100000205800002070B50C211648FFF770
:101230007DFE044600211548FFF778FE124A054658
:10124000002110684163106881631068C1631068F1
:1012500001640E480368596303689963136859630E
:10126000136899631368D963126811640268516343
:10127000006881634FF4FA70FFF7D6F82C4301D071
:10128000012070BD002070BD10000020580000201B
:101290002DE9F0410C211848FFF748FE8046042153
:1012A0001648FFF743FE144D0746002428684463A0
:1012B000286884632868C463286804640F4E306813
:1012C0004463306884634FF4FA70FFF7ADF8286820
:1012D0004463286884632868C463286804643068A9
:1012E00044633068846358EA070102D00120BDE8F6
:1012F000F0810020FBE700001000002058000020D3
:1013000010B5052827D2DFE800F003050C131A00FA
:10131000124A15E0114A084600F0B6F911688863D0
:1013200013E00E4A084600F0AFF91168C8630CE0FC
:101330000A4A084600F0A8F91168086405E0084A5E
:10134000084600F0A1F9116848634FF4FA70FFF7FE
:101350006BF8002010BD012010BD0000100000201F
:1013600058000020FFF770B930B593B030216846BF
:10137000FEF7F1FF14210CA8FEF7EDFF1D48002534
:10138000016841F080510160006800F080501190C8
:101390001948016841F4804101600068022400F4AA
:1013A0008040119001200390102004900094069436
:1013B0000820CDE90750A820CDE9090404200B90AE
:1013C0006846FFF799FA08B172B6FEE70CA90F203C
:1013D00081E831004FF4A0500F904FF480501090EE
:1013E00005210CA8FFF7BCF9002801D072B6FEE772
:1013F00013B030BD40380240007000400248016820
:1014000041F470010160704788ED00E0F0B50268BA
:10141000294C2A4D2A4E2B4F2B4B4FF0804CA0428B
:1014200009D0604507D0A84205D0B04203D0B842E9
:1014300001D0984204D122F0700E4A6842EA0E02AE
:10144000A0421BD0604519D0A84217D0B04215D099
:10145000B84213D0984211D01C4DA8420ED01C4D5A
:10146000A8420BD01B4DA84208D01B4DA84205D066
:101470001A4DA84202D01A4DA84203D122F4407559
:10148000CA682A434D6922F080022A4302608A68B2
:10149000C2620A688262A04201D0984201D1096901
:1014A0000163012141610169C90703D0016921F08C
:1014B00001010161F0BD0000000001400004004096
:1014C00000080040000C00400004014000400140C2
:1014D000004401400048014000180040001C00404A
:1014E0000020004010B501F01F030121046A99405B
:1014F0008C430462016A9A401143016210BD0000EE
:10150000F0B5036A026A22F001020262426884694D
:10151000124E24F073050C682C4323F002058B68EF
:101520002B430D4DA84201D0B04205D123F008074E
:10153000CB683B4323F00403A84201D0B04205D15D
:101540004D6922F4407215438A692A4342608461DE
:10155000496841630362F0BD00000140000401409E
:10156000F0B5026A036A23F01003036243688469DA
:101570000D6824F4E64444EA05248D6822F0200234
:1015800042EA05120F4D104EA84201D0B04206D1DA
:10159000CF6822F0800242EA071222F04002A842FD
:1015A00001D0B04207D14D6923F4406343EA85037B
:1015B0008D6943EA850343608461496881630262FF
:1015C000F0BD00000000014000040140F0B5026AD7
:1015D000036A23F4807303624368C46922F40072CF
:1015E00024F073050C68124E2C438D6842EA0522E4
:1015F0000E4DA84201D0B04206D1CF6822F400625D
:1016000042EA072222F48062A84201D0B04207D108
:101610004D6923F4405343EA05138D6943EA0513EA
:101620004360C4614968C1630262F0BD00000140CB
:101630000004014030B5046A026A22F4805202625A
:101640004268C3690D6823F4E64343EA05238D68C5
:1016500024F4005444EA0534084DA84202D0084D51
:10166000A84204D14D6922F4804242EA85124260C8
:10167000C36149680164046230BD0000000001409C
:1016800000040140FEE70000B42800D9B42000EEB9
:10169000100A9FED091AB8EE400AC0EE010A9FED4C
:1016A000071A9FED070A00EE810ABCEEC00A10EE91
:1016B000100A80B270470000000034430000484325
:1016C000000048420907090E002804DB00F1E02071
:1016D00080F80014704700F00F0000F1E02080F85F
:1016E000141D7047FEF7B8FFFFF73EFEFFF784FCBE
:1016F000FFF7A8FCFFF7F6FCFFF7CAFDFFF76EFD4A
:10170000FFF746FD3C210020FFF7FAFD00210846C7
:10171000FFF72CFDFFF788FDEEE74FF04070E1EE9C
:10172000100A7047000000000000000001020304DE
:1017300006070809541700080000002010000000E8
:10174000C40100086417000810000020F006000023
:10175000E00100080100000010000000000000008F
:041760000024F4006D
:040000050800018965
:00000001FF
